{
  "_format": "hh-sol-artifact-1",
  "contractName": "SoulBoundTest",
  "sourceName": "contracts/SBT.sol",
  "abi": [
    {
      "inputs": [],
      "stateMutability": "nonpayable",
      "type": "constructor"
    },
    {
      "inputs": [],
      "name": "AlreadyMinted",
      "type": "error"
    },
    {
      "inputs": [],
      "name": "NFTNotFound",
      "type": "error"
    },
    {
      "inputs": [],
      "name": "TransferBlocked",
      "type": "error"
    },
    {
      "anonymous": false,
      "inputs": [
        {
          "indexed": true,
          "internalType": "address",
          "name": "owner",
          "type": "address"
        },
        {
          "indexed": true,
          "internalType": "address",
          "name": "approved",
          "type": "address"
        },
        {
          "indexed": true,
          "internalType": "uint256",
          "name": "tokenId",
          "type": "uint256"
        }
      ],
      "name": "Approval",
      "type": "event"
    },
    {
      "anonymous": false,
      "inputs": [
        {
          "indexed": true,
          "internalType": "address",
          "name": "owner",
          "type": "address"
        },
        {
          "indexed": true,
          "internalType": "address",
          "name": "operator",
          "type": "address"
        },
        {
          "indexed": false,
          "internalType": "bool",
          "name": "approved",
          "type": "bool"
        }
      ],
      "name": "ApprovalForAll",
      "type": "event"
    },
    {
      "anonymous": false,
      "inputs": [
        {
          "indexed": true,
          "internalType": "address",
          "name": "previousOwner",
          "type": "address"
        },
        {
          "indexed": true,
          "internalType": "address",
          "name": "newOwner",
          "type": "address"
        }
      ],
      "name": "OwnershipTransferred",
      "type": "event"
    },
    {
      "anonymous": false,
      "inputs": [
        {
          "indexed": true,
          "internalType": "address",
          "name": "from",
          "type": "address"
        },
        {
          "indexed": true,
          "internalType": "address",
          "name": "to",
          "type": "address"
        },
        {
          "indexed": true,
          "internalType": "uint256",
          "name": "tokenId",
          "type": "uint256"
        }
      ],
      "name": "Transfer",
      "type": "event"
    },
    {
      "inputs": [
        {
          "internalType": "address",
          "name": "to",
          "type": "address"
        },
        {
          "internalType": "uint256",
          "name": "tokenId",
          "type": "uint256"
        }
      ],
      "name": "approve",
      "outputs": [],
      "stateMutability": "nonpayable",
      "type": "function"
    },
    {
      "inputs": [
        {
          "internalType": "address",
          "name": "owner",
          "type": "address"
        }
      ],
      "name": "balanceOf",
      "outputs": [
        {
          "internalType": "uint256",
          "name": "",
          "type": "uint256"
        }
      ],
      "stateMutability": "view",
      "type": "function"
    },
    {
      "inputs": [
        {
          "internalType": "uint256",
          "name": "tokenId",
          "type": "uint256"
        }
      ],
      "name": "getApproved",
      "outputs": [
        {
          "internalType": "address",
          "name": "",
          "type": "address"
        }
      ],
      "stateMutability": "view",
      "type": "function"
    },
    {
      "inputs": [
        {
          "internalType": "address",
          "name": "owner",
          "type": "address"
        }
      ],
      "name": "getNFTData",
      "outputs": [
        {
          "internalType": "string",
          "name": "faculty",
          "type": "string"
        },
        {
          "internalType": "string",
          "name": "program",
          "type": "string"
        },
        {
          "internalType": "string",
          "name": "image",
          "type": "string"
        },
        {
          "internalType": "string",
          "name": "uri",
          "type": "string"
        }
      ],
      "stateMutability": "view",
      "type": "function"
    },
    {
      "inputs": [
        {
          "internalType": "address",
          "name": "owner",
          "type": "address"
        },
        {
          "internalType": "address",
          "name": "operator",
          "type": "address"
        }
      ],
      "name": "isApprovedForAll",
      "outputs": [
        {
          "internalType": "bool",
          "name": "",
          "type": "bool"
        }
      ],
      "stateMutability": "view",
      "type": "function"
    },
    {
      "inputs": [],
      "name": "name",
      "outputs": [
        {
          "internalType": "string",
          "name": "",
          "type": "string"
        }
      ],
      "stateMutability": "view",
      "type": "function"
    },
    {
      "inputs": [],
      "name": "owner",
      "outputs": [
        {
          "internalType": "address",
          "name": "",
          "type": "address"
        }
      ],
      "stateMutability": "view",
      "type": "function"
    },
    {
      "inputs": [
        {
          "internalType": "uint256",
          "name": "tokenId",
          "type": "uint256"
        }
      ],
      "name": "ownerOf",
      "outputs": [
        {
          "internalType": "address",
          "name": "",
          "type": "address"
        }
      ],
      "stateMutability": "view",
      "type": "function"
    },
    {
      "inputs": [],
      "name": "renounceOwnership",
      "outputs": [],
      "stateMutability": "nonpayable",
      "type": "function"
    },
    {
      "inputs": [
        {
          "internalType": "address",
          "name": "to",
          "type": "address"
        },
        {
          "internalType": "string",
          "name": "uri",
          "type": "string"
        },
        {
          "internalType": "string",
          "name": "faculty",
          "type": "string"
        },
        {
          "internalType": "string",
          "name": "program",
          "type": "string"
        },
        {
          "internalType": "string",
          "name": "image",
          "type": "string"
        }
      ],
      "name": "safeMint",
      "outputs": [],
      "stateMutability": "nonpayable",
      "type": "function"
    },
    {
      "inputs": [
        {
          "internalType": "address",
          "name": "from",
          "type": "address"
        },
        {
          "internalType": "address",
          "name": "to",
          "type": "address"
        },
        {
          "internalType": "uint256",
          "name": "tokenId",
          "type": "uint256"
        }
      ],
      "name": "safeTransferFrom",
      "outputs": [],
      "stateMutability": "nonpayable",
      "type": "function"
    },
    {
      "inputs": [
        {
          "internalType": "address",
          "name": "from",
          "type": "address"
        },
        {
          "internalType": "address",
          "name": "to",
          "type": "address"
        },
        {
          "internalType": "uint256",
          "name": "tokenId",
          "type": "uint256"
        },
        {
          "internalType": "bytes",
          "name": "data",
          "type": "bytes"
        }
      ],
      "name": "safeTransferFrom",
      "outputs": [],
      "stateMutability": "nonpayable",
      "type": "function"
    },
    {
      "inputs": [
        {
          "internalType": "address",
          "name": "operator",
          "type": "address"
        },
        {
          "internalType": "bool",
          "name": "approved",
          "type": "bool"
        }
      ],
      "name": "setApprovalForAll",
      "outputs": [],
      "stateMutability": "nonpayable",
      "type": "function"
    },
    {
      "inputs": [
        {
          "internalType": "bytes4",
          "name": "interfaceId",
          "type": "bytes4"
        }
      ],
      "name": "supportsInterface",
      "outputs": [
        {
          "internalType": "bool",
          "name": "",
          "type": "bool"
        }
      ],
      "stateMutability": "view",
      "type": "function"
    },
    {
      "inputs": [],
      "name": "symbol",
      "outputs": [
        {
          "internalType": "string",
          "name": "",
          "type": "string"
        }
      ],
      "stateMutability": "view",
      "type": "function"
    },
    {
      "inputs": [
        {
          "internalType": "address",
          "name": "owner",
          "type": "address"
        },
        {
          "internalType": "uint256",
          "name": "index",
          "type": "uint256"
        }
      ],
      "name": "tokenOfOwnerByIndex",
      "outputs": [
        {
          "internalType": "uint256",
          "name": "",
          "type": "uint256"
        }
      ],
      "stateMutability": "view",
      "type": "function"
    },
    {
      "inputs": [
        {
          "internalType": "uint256",
          "name": "tokenId",
          "type": "uint256"
        }
      ],
      "name": "tokenURI",
      "outputs": [
        {
          "internalType": "string",
          "name": "",
          "type": "string"
        }
      ],
      "stateMutability": "view",
      "type": "function"
    },
    {
      "inputs": [],
      "name": "totalMinted",
      "outputs": [
        {
          "internalType": "uint256",
          "name": "",
          "type": "uint256"
        }
      ],
      "stateMutability": "view",
      "type": "function"
    },
    {
      "inputs": [
        {
          "internalType": "address",
          "name": "from",
          "type": "address"
        },
        {
          "internalType": "address",
          "name": "to",
          "type": "address"
        },
        {
          "internalType": "uint256",
          "name": "tokenId",
          "type": "uint256"
        }
      ],
      "name": "transferFrom",
      "outputs": [],
      "stateMutability": "nonpayable",
      "type": "function"
    },
    {
      "inputs": [
        {
          "internalType": "address",
          "name": "newOwner",
          "type": "address"
        }
      ],
      "name": "transferOwnership",
      "outputs": [],
      "stateMutability": "nonpayable",
      "type": "function"
    }
  ],
  "bytecode": "0x60806040523480156200001157600080fd5b506040518060400160405280601281526020017f57686974656c697374536f756c426f756e6400000000000000000000000000008152506040518060400160405280600481526020017f575342540000000000000000000000000000000000000000000000000000000081525081600090816200008f919062000412565b508060019081620000a1919062000412565b505050620000c4620000b8620000ca60201b60201c565b620000d260201b60201c565b620004f9565b600033905090565b6000600760009054906101000a900473ffffffffffffffffffffffffffffffffffffffff16905081600760006101000a81548173ffffffffffffffffffffffffffffffffffffffff021916908373ffffffffffffffffffffffffffffffffffffffff1602179055508173ffffffffffffffffffffffffffffffffffffffff168173ffffffffffffffffffffffffffffffffffffffff167f8be0079c531659141344cd1fd0a4f28419497f9722a3daafe3b4186f6b6457e060405160405180910390a35050565b600081519050919050565b7f4e487b7100000000000000000000000000000000000000000000000000000000600052604160045260246000fd5b7f4e487b7100000000000000000000000000000000000000000000000000000000600052602260045260246000fd5b600060028204905060018216806200021a57607f821691505b60208210810362000230576200022f620001d2565b5b50919050565b60008190508160005260206000209050919050565b60006020601f8301049050919050565b600082821b905092915050565b6000600883026200029a7fffffffffffffffffffffffffffffffffffffffffffffffffffffffffffffffff826200025b565b620002a686836200025b565b95508019841693508086168417925050509392505050565b6000819050919050565b6000819050919050565b6000620002f3620002ed620002e784620002be565b620002c8565b620002be565b9050919050565b6000819050919050565b6200030f83620002d2565b620003276200031e82620002fa565b84845462000268565b825550505050565b600090565b6200033e6200032f565b6200034b81848462000304565b505050565b5b8181101562000373576200036760008262000334565b60018101905062000351565b5050565b601f821115620003c2576200038c8162000236565b62000397846200024b565b81016020851015620003a7578190505b620003bf620003b6856200024b565b83018262000350565b50505b505050565b600082821c905092915050565b6000620003e760001984600802620003c7565b1980831691505092915050565b6000620004028383620003d4565b9150826002028217905092915050565b6200041d8262000198565b67ffffffffffffffff811115620004395762000438620001a3565b5b62000445825462000201565b6200045282828562000377565b600060209050601f8311600181146200048a576000841562000475578287015190505b620004818582620003f4565b865550620004f1565b601f1984166200049a8662000236565b60005b82811015620004c4578489015182556001820191506020850194506020810190506200049d565b86831015620004e45784890151620004e0601f891682620003d4565b8355505b6001600288020188555050505b505050505050565b61350f80620005096000396000f3fe608060405234801561001057600080fd5b506004361061012c5760003560e01c8063715018a6116100ad578063a2309ff811610071578063a2309ff814610344578063b88d4fde14610362578063c87b56dd1461037e578063e985e9c5146103ae578063f2fde38b146103de5761012c565b8063715018a6146102af5780638da5cb5b146102b957806395d89b41146102d75780639c917330146102f5578063a22cb465146103285761012c565b8063296c2b3a116100f4578063296c2b3a146101e75780632f745c591461020357806342842e0e146102335780636352211e1461024f57806370a082311461027f5761012c565b806301ffc9a71461013157806306fdde0314610161578063081812fc1461017f578063095ea7b3146101af57806323b872dd146101cb575b600080fd5b61014b60048036038101906101469190612034565b6103fa565b604051610158919061207c565b60405180910390f35b6101696104dc565b6040516101769190612127565b60405180910390f35b6101996004803603810190610194919061217f565b61056e565b6040516101a691906121ed565b60405180910390f35b6101c960048036038101906101c49190612234565b6105b4565b005b6101e560048036038101906101e09190612274565b6106cb565b005b61020160048036038101906101fc91906123fc565b61072b565b005b61021d60048036038101906102189190612234565b6108a6565b60405161022a91906124f6565b60405180910390f35b61024d60048036038101906102489190612274565b610993565b005b6102696004803603810190610264919061217f565b6109b3565b60405161027691906121ed565b60405180910390f35b61029960048036038101906102949190612511565b610a64565b6040516102a691906124f6565b60405180910390f35b6102b7610b1b565b005b6102c1610b2f565b6040516102ce91906121ed565b60405180910390f35b6102df610b59565b6040516102ec9190612127565b60405180910390f35b61030f600480360381019061030a9190612511565b610beb565b60405161031f949392919061253e565b60405180910390f35b610342600480360381019061033d91906125cb565b610e2f565b005b61034c610e45565b60405161035991906124f6565b60405180910390f35b61037c600480360381019061037791906126ac565b610e56565b005b6103986004803603810190610393919061217f565b610eb8565b6040516103a59190612127565b60405180910390f35b6103c860048036038101906103c3919061272f565b610eca565b6040516103d5919061207c565b60405180910390f35b6103f860048036038101906103f39190612511565b610f5e565b005b60007f80ac58cd000000000000000000000000000000000000000000000000000000007bffffffffffffffffffffffffffffffffffffffffffffffffffffffff1916827bffffffffffffffffffffffffffffffffffffffffffffffffffffffff191614806104c557507f5b5e139f000000000000000000000000000000000000000000000000000000007bffffffffffffffffffffffffffffffffffffffffffffffffffffffff1916827bffffffffffffffffffffffffffffffffffffffffffffffffffffffff1916145b806104d557506104d482610fe1565b5b9050919050565b6060600080546104eb9061279e565b80601f01602080910402602001604051908101604052809291908181526020018280546105179061279e565b80156105645780601f1061053957610100808354040283529160200191610564565b820191906000526020600020905b81548152906001019060200180831161054757829003601f168201915b5050505050905090565b60006105798261104b565b6004600083815260200190815260200160002060009054906101000a900473ffffffffffffffffffffffffffffffffffffffff169050919050565b60006105bf826109b3565b90508073ffffffffffffffffffffffffffffffffffffffff168373ffffffffffffffffffffffffffffffffffffffff160361062f576040517f08c379a000000000000000000000000000000000000000000000000000000000815260040161062690612841565b60405180910390fd5b8073ffffffffffffffffffffffffffffffffffffffff1661064e611096565b73ffffffffffffffffffffffffffffffffffffffff16148061067d575061067c81610677611096565b610eca565b5b6106bc576040517f08c379a00000000000000000000000000000000000000000000000000000000081526004016106b3906128d3565b60405180910390fd5b6106c6838361109e565b505050565b6106dc6106d6611096565b82611157565b61071b576040517f08c379a000000000000000000000000000000000000000000000000000000000815260040161071290612965565b60405180910390fd5b6107268383836111ec565b505050565b610733611452565b600960008673ffffffffffffffffffffffffffffffffffffffff1673ffffffffffffffffffffffffffffffffffffffff16815260200190815260200160002060009054906101000a900460ff16156107b7576040517fddefae2800000000000000000000000000000000000000000000000000000000815260040160405180910390fd5b60006107c360086114d0565b90506107cf60086114de565b6107d986826114f4565b6107e38186611512565b6001600960008873ffffffffffffffffffffffffffffffffffffffff1673ffffffffffffffffffffffffffffffffffffffff16815260200190815260200160002060006101000a81548160ff02191690831515021790555083600a6000838152602001908152602001600020908161085b9190612b31565b5082600b6000838152602001908152602001600020908161087c9190612b31565b5081600c6000838152602001908152602001600020908161089d9190612b31565b50505050505050565b60006108b183610a64565b82106108f2576040517f08c379a00000000000000000000000000000000000000000000000000000000081526004016108e990612c4f565b60405180910390fd5b60008060005b61090260086114d0565b811015610987576109128161157f565b801561095157508573ffffffffffffffffffffffffffffffffffffffff16610939826109b3565b73ffffffffffffffffffffffffffffffffffffffff16145b156109745784820361096557809250610987565b818061097090612c9e565b9250505b808061097f90612c9e565b9150506108f8565b50819250505092915050565b6109ae83838360405180602001604052806000815250610e56565b505050565b6000806002600084815260200190815260200160002060009054906101000a900473ffffffffffffffffffffffffffffffffffffffff169050600073ffffffffffffffffffffffffffffffffffffffff168173ffffffffffffffffffffffffffffffffffffffff1603610a5b576040517f08c379a0000000000000000000000000000000000000000000000000000000008152600401610a5290612d32565b60405180910390fd5b80915050919050565b60008073ffffffffffffffffffffffffffffffffffffffff168273ffffffffffffffffffffffffffffffffffffffff1603610ad4576040517f08c379a0000000000000000000000000000000000000000000000000000000008152600401610acb90612dc4565b60405180910390fd5b600360008373ffffffffffffffffffffffffffffffffffffffff1673ffffffffffffffffffffffffffffffffffffffff168152602001908152602001600020549050919050565b610b23611452565b610b2d60006115eb565b565b6000600760009054906101000a900473ffffffffffffffffffffffffffffffffffffffff16905090565b606060018054610b689061279e565b80601f0160208091040260200160405190810160405280929190818152602001828054610b949061279e565b8015610be15780601f10610bb657610100808354040283529160200191610be1565b820191906000526020600020905b815481529060010190602001808311610bc457829003601f168201915b5050505050905090565b6060806060806000610bfc86610a64565b11610c33576040517ff070cb6f00000000000000000000000000000000000000000000000000000000815260040160405180910390fd5b6000610c408660006108a6565b9050600a60008281526020019081526020016000208054610c609061279e565b80601f0160208091040260200160405190810160405280929190818152602001828054610c8c9061279e565b8015610cd95780601f10610cae57610100808354040283529160200191610cd9565b820191906000526020600020905b815481529060010190602001808311610cbc57829003601f168201915b50505050509450600b60008281526020019081526020016000208054610cfe9061279e565b80601f0160208091040260200160405190810160405280929190818152602001828054610d2a9061279e565b8015610d775780601f10610d4c57610100808354040283529160200191610d77565b820191906000526020600020905b815481529060010190602001808311610d5a57829003601f168201915b50505050509350600c60008281526020019081526020016000208054610d9c9061279e565b80601f0160208091040260200160405190810160405280929190818152602001828054610dc89061279e565b8015610e155780601f10610dea57610100808354040283529160200191610e15565b820191906000526020600020905b815481529060010190602001808311610df857829003601f168201915b50505050509250610e2581610eb8565b9150509193509193565b610e41610e3a611096565b83836116b1565b5050565b6000610e5160086114d0565b905090565b610e67610e61611096565b83611157565b610ea6576040517f08c379a0000000000000000000000000000000000000000000000000000000008152600401610e9d90612965565b60405180910390fd5b610eb28484848461181d565b50505050565b6060610ec382611879565b9050919050565b6000600560008473ffffffffffffffffffffffffffffffffffffffff1673ffffffffffffffffffffffffffffffffffffffff16815260200190815260200160002060008373ffffffffffffffffffffffffffffffffffffffff1673ffffffffffffffffffffffffffffffffffffffff16815260200190815260200160002060009054906101000a900460ff16905092915050565b610f66611452565b600073ffffffffffffffffffffffffffffffffffffffff168173ffffffffffffffffffffffffffffffffffffffff1603610fd5576040517f08c379a0000000000000000000000000000000000000000000000000000000008152600401610fcc90612e56565b60405180910390fd5b610fde816115eb565b50565b60007f01ffc9a7000000000000000000000000000000000000000000000000000000007bffffffffffffffffffffffffffffffffffffffffffffffffffffffff1916827bffffffffffffffffffffffffffffffffffffffffffffffffffffffff1916149050919050565b6110548161157f565b611093576040517f08c379a000000000000000000000000000000000000000000000000000000000815260040161108a90612d32565b60405180910390fd5b50565b600033905090565b816004600083815260200190815260200160002060006101000a81548173ffffffffffffffffffffffffffffffffffffffff021916908373ffffffffffffffffffffffffffffffffffffffff160217905550808273ffffffffffffffffffffffffffffffffffffffff16611111836109b3565b73ffffffffffffffffffffffffffffffffffffffff167f8c5be1e5ebec7d5bd14f71427d1e84f3dd0314c0f7b2291e5b200ac8c7c3b92560405160405180910390a45050565b600080611163836109b3565b90508073ffffffffffffffffffffffffffffffffffffffff168473ffffffffffffffffffffffffffffffffffffffff1614806111a557506111a48185610eca565b5b806111e357508373ffffffffffffffffffffffffffffffffffffffff166111cb8461056e565b73ffffffffffffffffffffffffffffffffffffffff16145b91505092915050565b8273ffffffffffffffffffffffffffffffffffffffff1661120c826109b3565b73ffffffffffffffffffffffffffffffffffffffff1614611262576040517f08c379a000000000000000000000000000000000000000000000000000000000815260040161125990612ee8565b60405180910390fd5b600073ffffffffffffffffffffffffffffffffffffffff168273ffffffffffffffffffffffffffffffffffffffff16036112d1576040517f08c379a00000000000000000000000000000000000000000000000000000000081526004016112c890612f7a565b60405180910390fd5b6112dc83838361198b565b6112e760008261109e565b6001600360008573ffffffffffffffffffffffffffffffffffffffff1673ffffffffffffffffffffffffffffffffffffffff16815260200190815260200160002060008282546113379190612f9a565b925050819055506001600360008473ffffffffffffffffffffffffffffffffffffffff1673ffffffffffffffffffffffffffffffffffffffff168152602001908152602001600020600082825461138e9190612fce565b92505081905550816002600083815260200190815260200160002060006101000a81548173ffffffffffffffffffffffffffffffffffffffff021916908373ffffffffffffffffffffffffffffffffffffffff160217905550808273ffffffffffffffffffffffffffffffffffffffff168473ffffffffffffffffffffffffffffffffffffffff167fddf252ad1be2c89b69c2b068fc378daa952ba7f163c4a11628f55a4df523b3ef60405160405180910390a461144d838383611a01565b505050565b61145a611096565b73ffffffffffffffffffffffffffffffffffffffff16611478610b2f565b73ffffffffffffffffffffffffffffffffffffffff16146114ce576040517f08c379a00000000000000000000000000000000000000000000000000000000081526004016114c59061304e565b60405180910390fd5b565b600081600001549050919050565b6001816000016000828254019250508190555050565b61150e828260405180602001604052806000815250611a06565b5050565b61151b8261157f565b61155a576040517f08c379a0000000000000000000000000000000000000000000000000000000008152600401611551906130e0565b60405180910390fd5b8060066000848152602001908152602001600020908161157a9190612b31565b505050565b60008073ffffffffffffffffffffffffffffffffffffffff166002600084815260200190815260200160002060009054906101000a900473ffffffffffffffffffffffffffffffffffffffff1673ffffffffffffffffffffffffffffffffffffffff1614159050919050565b6000600760009054906101000a900473ffffffffffffffffffffffffffffffffffffffff16905081600760006101000a81548173ffffffffffffffffffffffffffffffffffffffff021916908373ffffffffffffffffffffffffffffffffffffffff1602179055508173ffffffffffffffffffffffffffffffffffffffff168173ffffffffffffffffffffffffffffffffffffffff167f8be0079c531659141344cd1fd0a4f28419497f9722a3daafe3b4186f6b6457e060405160405180910390a35050565b8173ffffffffffffffffffffffffffffffffffffffff168373ffffffffffffffffffffffffffffffffffffffff160361171f576040517f08c379a00000000000000000000000000000000000000000000000000000000081526004016117169061314c565b60405180910390fd5b80600560008573ffffffffffffffffffffffffffffffffffffffff1673ffffffffffffffffffffffffffffffffffffffff16815260200190815260200160002060008473ffffffffffffffffffffffffffffffffffffffff1673ffffffffffffffffffffffffffffffffffffffff16815260200190815260200160002060006101000a81548160ff0219169083151502179055508173ffffffffffffffffffffffffffffffffffffffff168373ffffffffffffffffffffffffffffffffffffffff167f17307eab39ab6107e8899845ad3d59bd9653f200f220920489ca2b5937696c3183604051611810919061207c565b60405180910390a3505050565b6118288484846111ec565b61183484848484611a61565b611873576040517f08c379a000000000000000000000000000000000000000000000000000000000815260040161186a906131de565b60405180910390fd5b50505050565b60606118848261104b565b60006006600084815260200190815260200160002080546118a49061279e565b80601f01602080910402602001604051908101604052809291908181526020018280546118d09061279e565b801561191d5780601f106118f25761010080835404028352916020019161191d565b820191906000526020600020905b81548152906001019060200180831161190057829003601f168201915b50505050509050600061192e611be8565b90506000815103611943578192505050611986565b60008251111561197857808260405160200161196092919061323a565b60405160208183030381529060405292505050611986565b61198184611bff565b925050505b919050565b600073ffffffffffffffffffffffffffffffffffffffff168373ffffffffffffffffffffffffffffffffffffffff16146119f1576040517ff90e674a00000000000000000000000000000000000000000000000000000000815260040160405180910390fd5b6119fc838383611c67565b505050565b505050565b611a108383611c6c565b611a1d6000848484611a61565b611a5c576040517f08c379a0000000000000000000000000000000000000000000000000000000008152600401611a53906131de565b60405180910390fd5b505050565b6000611a828473ffffffffffffffffffffffffffffffffffffffff16611e45565b15611bdb578373ffffffffffffffffffffffffffffffffffffffff1663150b7a02611aab611096565b8786866040518563ffffffff1660e01b8152600401611acd94939291906132b3565b6020604051808303816000875af1925050508015611b0957506040513d601f19601f82011682018060405250810190611b069190613314565b60015b611b8b573d8060008114611b39576040519150601f19603f3d011682016040523d82523d6000602084013e611b3e565b606091505b506000815103611b83576040517f08c379a0000000000000000000000000000000000000000000000000000000008152600401611b7a906131de565b60405180910390fd5b805181602001fd5b63150b7a0260e01b7bffffffffffffffffffffffffffffffffffffffffffffffffffffffff1916817bffffffffffffffffffffffffffffffffffffffffffffffffffffffff191614915050611be0565b600190505b949350505050565b606060405180602001604052806000815250905090565b6060611c0a8261104b565b6000611c14611be8565b90506000815111611c345760405180602001604052806000815250611c5f565b80611c3e84611e68565b604051602001611c4f92919061323a565b6040516020818303038152906040525b915050919050565b505050565b600073ffffffffffffffffffffffffffffffffffffffff168273ffffffffffffffffffffffffffffffffffffffff1603611cdb576040517f08c379a0000000000000000000000000000000000000000000000000000000008152600401611cd29061338d565b60405180910390fd5b611ce48161157f565b15611d24576040517f08c379a0000000000000000000000000000000000000000000000000000000008152600401611d1b906133f9565b60405180910390fd5b611d306000838361198b565b6001600360008473ffffffffffffffffffffffffffffffffffffffff1673ffffffffffffffffffffffffffffffffffffffff1681526020019081526020016000206000828254611d809190612fce565b92505081905550816002600083815260200190815260200160002060006101000a81548173ffffffffffffffffffffffffffffffffffffffff021916908373ffffffffffffffffffffffffffffffffffffffff160217905550808273ffffffffffffffffffffffffffffffffffffffff16600073ffffffffffffffffffffffffffffffffffffffff167fddf252ad1be2c89b69c2b068fc378daa952ba7f163c4a11628f55a4df523b3ef60405160405180910390a4611e4160008383611a01565b5050565b6000808273ffffffffffffffffffffffffffffffffffffffff163b119050919050565b606060008203611eaf576040518060400160405280600181526020017f30000000000000000000000000000000000000000000000000000000000000008152509050611fc3565b600082905060005b60008214611ee1578080611eca90612c9e565b915050600a82611eda9190613448565b9150611eb7565b60008167ffffffffffffffff811115611efd57611efc6122d1565b5b6040519080825280601f01601f191660200182016040528015611f2f5781602001600182028036833780820191505090505b5090505b60008514611fbc57600182611f489190612f9a565b9150600a85611f579190613479565b6030611f639190612fce565b60f81b818381518110611f7957611f786134aa565b5b60200101907effffffffffffffffffffffffffffffffffffffffffffffffffffffffffffff1916908160001a905350600a85611fb59190613448565b9450611f33565b8093505050505b919050565b6000604051905090565b600080fd5b600080fd5b60007fffffffff0000000000000000000000000000000000000000000000000000000082169050919050565b61201181611fdc565b811461201c57600080fd5b50565b60008135905061202e81612008565b92915050565b60006020828403121561204a57612049611fd2565b5b60006120588482850161201f565b91505092915050565b60008115159050919050565b61207681612061565b82525050565b6000602082019050612091600083018461206d565b92915050565b600081519050919050565b600082825260208201905092915050565b60005b838110156120d15780820151818401526020810190506120b6565b60008484015250505050565b6000601f19601f8301169050919050565b60006120f982612097565b61210381856120a2565b93506121138185602086016120b3565b61211c816120dd565b840191505092915050565b6000602082019050818103600083015261214181846120ee565b905092915050565b6000819050919050565b61215c81612149565b811461216757600080fd5b50565b60008135905061217981612153565b92915050565b60006020828403121561219557612194611fd2565b5b60006121a38482850161216a565b91505092915050565b600073ffffffffffffffffffffffffffffffffffffffff82169050919050565b60006121d7826121ac565b9050919050565b6121e7816121cc565b82525050565b600060208201905061220260008301846121de565b92915050565b612211816121cc565b811461221c57600080fd5b50565b60008135905061222e81612208565b92915050565b6000806040838503121561224b5761224a611fd2565b5b60006122598582860161221f565b925050602061226a8582860161216a565b9150509250929050565b60008060006060848603121561228d5761228c611fd2565b5b600061229b8682870161221f565b93505060206122ac8682870161221f565b92505060406122bd8682870161216a565b9150509250925092565b600080fd5b600080fd5b7f4e487b7100000000000000000000000000000000000000000000000000000000600052604160045260246000fd5b612309826120dd565b810181811067ffffffffffffffff82111715612328576123276122d1565b5b80604052505050565b600061233b611fc8565b90506123478282612300565b919050565b600067ffffffffffffffff821115612367576123666122d1565b5b612370826120dd565b9050602081019050919050565b82818337600083830152505050565b600061239f61239a8461234c565b612331565b9050828152602081018484840111156123bb576123ba6122cc565b5b6123c684828561237d565b509392505050565b600082601f8301126123e3576123e26122c7565b5b81356123f384826020860161238c565b91505092915050565b600080600080600060a0868803121561241857612417611fd2565b5b60006124268882890161221f565b955050602086013567ffffffffffffffff81111561244757612446611fd7565b5b612453888289016123ce565b945050604086013567ffffffffffffffff81111561247457612473611fd7565b5b612480888289016123ce565b935050606086013567ffffffffffffffff8111156124a1576124a0611fd7565b5b6124ad888289016123ce565b925050608086013567ffffffffffffffff8111156124ce576124cd611fd7565b5b6124da888289016123ce565b9150509295509295909350565b6124f081612149565b82525050565b600060208201905061250b60008301846124e7565b92915050565b60006020828403121561252757612526611fd2565b5b60006125358482850161221f565b91505092915050565b6000608082019050818103600083015261255881876120ee565b9050818103602083015261256c81866120ee565b9050818103604083015261258081856120ee565b9050818103606083015261259481846120ee565b905095945050505050565b6125a881612061565b81146125b357600080fd5b50565b6000813590506125c58161259f565b92915050565b600080604083850312156125e2576125e1611fd2565b5b60006125f08582860161221f565b9250506020612601858286016125b6565b9150509250929050565b600067ffffffffffffffff821115612626576126256122d1565b5b61262f826120dd565b9050602081019050919050565b600061264f61264a8461260b565b612331565b90508281526020810184848401111561266b5761266a6122cc565b5b61267684828561237d565b509392505050565b600082601f830112612693576126926122c7565b5b81356126a384826020860161263c565b91505092915050565b600080600080608085870312156126c6576126c5611fd2565b5b60006126d48782880161221f565b94505060206126e58782880161221f565b93505060406126f68782880161216a565b925050606085013567ffffffffffffffff81111561271757612716611fd7565b5b6127238782880161267e565b91505092959194509250565b6000806040838503121561274657612745611fd2565b5b60006127548582860161221f565b92505060206127658582860161221f565b9150509250929050565b7f4e487b7100000000000000000000000000000000000000000000000000000000600052602260045260246000fd5b600060028204905060018216806127b657607f821691505b6020821081036127c9576127c861276f565b5b50919050565b7f4552433732313a20617070726f76616c20746f2063757272656e74206f776e6560008201527f7200000000000000000000000000000000000000000000000000000000000000602082015250565b600061282b6021836120a2565b9150612836826127cf565b604082019050919050565b6000602082019050818103600083015261285a8161281e565b9050919050565b7f4552433732313a20617070726f76652063616c6c6572206973206e6f7420746f60008201527f6b656e206f776e6572206e6f7220617070726f76656420666f7220616c6c0000602082015250565b60006128bd603e836120a2565b91506128c882612861565b604082019050919050565b600060208201905081810360008301526128ec816128b0565b9050919050565b7f4552433732313a2063616c6c6572206973206e6f7420746f6b656e206f776e6560008201527f72206e6f7220617070726f766564000000000000000000000000000000000000602082015250565b600061294f602e836120a2565b915061295a826128f3565b604082019050919050565b6000602082019050818103600083015261297e81612942565b9050919050565b60008190508160005260206000209050919050565b60006020601f8301049050919050565b600082821b905092915050565b6000600883026129e77fffffffffffffffffffffffffffffffffffffffffffffffffffffffffffffffff826129aa565b6129f186836129aa565b95508019841693508086168417925050509392505050565b6000819050919050565b6000612a2e612a29612a2484612149565b612a09565b612149565b9050919050565b6000819050919050565b612a4883612a13565b612a5c612a5482612a35565b8484546129b7565b825550505050565b600090565b612a71612a64565b612a7c818484612a3f565b505050565b5b81811015612aa057612a95600082612a69565b600181019050612a82565b5050565b601f821115612ae557612ab681612985565b612abf8461299a565b81016020851015612ace578190505b612ae2612ada8561299a565b830182612a81565b50505b505050565b600082821c905092915050565b6000612b0860001984600802612aea565b1980831691505092915050565b6000612b218383612af7565b9150826002028217905092915050565b612b3a82612097565b67ffffffffffffffff811115612b5357612b526122d1565b5b612b5d825461279e565b612b68828285612aa4565b600060209050601f831160018114612b9b5760008415612b89578287015190505b612b938582612b15565b865550612bfb565b601f198416612ba986612985565b60005b82811015612bd157848901518255600182019150602085019450602081019050612bac565b86831015612bee5784890151612bea601f891682612af7565b8355505b6001600288020188555050505b505050505050565b7f4f776e657220696e646578206f7574206f6620626f756e647300000000000000600082015250565b6000612c396019836120a2565b9150612c4482612c03565b602082019050919050565b60006020820190508181036000830152612c6881612c2c565b9050919050565b7f4e487b7100000000000000000000000000000000000000000000000000000000600052601160045260246000fd5b6000612ca982612149565b91507fffffffffffffffffffffffffffffffffffffffffffffffffffffffffffffffff8203612cdb57612cda612c6f565b5b600182019050919050565b7f4552433732313a20696e76616c696420746f6b656e2049440000000000000000600082015250565b6000612d1c6018836120a2565b9150612d2782612ce6565b602082019050919050565b60006020820190508181036000830152612d4b81612d0f565b9050919050565b7f4552433732313a2061646472657373207a65726f206973206e6f74206120766160008201527f6c6964206f776e65720000000000000000000000000000000000000000000000602082015250565b6000612dae6029836120a2565b9150612db982612d52565b604082019050919050565b60006020820190508181036000830152612ddd81612da1565b9050919050565b7f4f776e61626c653a206e6577206f776e657220697320746865207a65726f206160008201527f6464726573730000000000000000000000000000000000000000000000000000602082015250565b6000612e406026836120a2565b9150612e4b82612de4565b604082019050919050565b60006020820190508181036000830152612e6f81612e33565b9050919050565b7f4552433732313a207472616e736665722066726f6d20696e636f72726563742060008201527f6f776e6572000000000000000000000000000000000000000000000000000000602082015250565b6000612ed26025836120a2565b9150612edd82612e76565b604082019050919050565b60006020820190508181036000830152612f0181612ec5565b9050919050565b7f4552433732313a207472616e7366657220746f20746865207a65726f2061646460008201527f7265737300000000000000000000000000000000000000000000000000000000602082015250565b6000612f646024836120a2565b9150612f6f82612f08565b604082019050919050565b60006020820190508181036000830152612f9381612f57565b9050919050565b6000612fa582612149565b9150612fb083612149565b9250828203905081811115612fc857612fc7612c6f565b5b92915050565b6000612fd982612149565b9150612fe483612149565b9250828201905080821115612ffc57612ffb612c6f565b5b92915050565b7f4f776e61626c653a2063616c6c6572206973206e6f7420746865206f776e6572600082015250565b60006130386020836120a2565b915061304382613002565b602082019050919050565b600060208201905081810360008301526130678161302b565b9050919050565b7f45524337323155524953746f726167653a2055524920736574206f66206e6f6e60008201527f6578697374656e7420746f6b656e000000000000000000000000000000000000602082015250565b60006130ca602e836120a2565b91506130d58261306e565b604082019050919050565b600060208201905081810360008301526130f9816130bd565b9050919050565b7f4552433732313a20617070726f766520746f2063616c6c657200000000000000600082015250565b60006131366019836120a2565b915061314182613100565b602082019050919050565b6000602082019050818103600083015261316581613129565b9050919050565b7f4552433732313a207472616e7366657220746f206e6f6e20455243373231526560008201527f63656976657220696d706c656d656e7465720000000000000000000000000000602082015250565b60006131c86032836120a2565b91506131d38261316c565b604082019050919050565b600060208201905081810360008301526131f7816131bb565b9050919050565b600081905092915050565b600061321482612097565b61321e81856131fe565b935061322e8185602086016120b3565b80840191505092915050565b60006132468285613209565b91506132528284613209565b91508190509392505050565b600081519050919050565b600082825260208201905092915050565b60006132858261325e565b61328f8185613269565b935061329f8185602086016120b3565b6132a8816120dd565b840191505092915050565b60006080820190506132c860008301876121de565b6132d560208301866121de565b6132e260408301856124e7565b81810360608301526132f4818461327a565b905095945050505050565b60008151905061330e81612008565b92915050565b60006020828403121561332a57613329611fd2565b5b6000613338848285016132ff565b91505092915050565b7f4552433732313a206d696e7420746f20746865207a65726f2061646472657373600082015250565b60006133776020836120a2565b915061338282613341565b602082019050919050565b600060208201905081810360008301526133a68161336a565b9050919050565b7f4552433732313a20746f6b656e20616c7265616479206d696e74656400000000600082015250565b60006133e3601c836120a2565b91506133ee826133ad565b602082019050919050565b60006020820190508181036000830152613412816133d6565b9050919050565b7f4e487b7100000000000000000000000000000000000000000000000000000000600052601260045260246000fd5b600061345382612149565b915061345e83612149565b92508261346e5761346d613419565b5b828204905092915050565b600061348482612149565b915061348f83612149565b92508261349f5761349e613419565b5b828206905092915050565b7f4e487b7100000000000000000000000000000000000000000000000000000000600052603260045260246000fdfea26469706673582212209b9e4c9d857e5cc175f1b8d84bcb29940d24dfacce7cc87194833155d25bf76864736f6c63430008140033",
  "linkReferences": {},
  "deployedLinkReferences": {}
}