{
  "_format": "hh-sol-artifact-1",
  "contractName": "ElectionVote",
  "sourceName": "contracts/Election.sol",
  "abi": [
    {
      "inputs": [
        {
          "internalType": "address",
          "name": "_nftContractAddress",
          "type": "address"
        }
      ],
      "stateMutability": "nonpayable",
      "type": "constructor"
    },
    {
      "inputs": [],
      "name": "AlreadyVoted",
      "type": "error"
    },
    {
      "inputs": [],
      "name": "InvalidCandidate",
      "type": "error"
    },
    {
      "inputs": [],
      "name": "InvalidElection",
      "type": "error"
    },
    {
      "inputs": [],
      "name": "InvalidSignature",
      "type": "error"
    },
    {
      "inputs": [],
      "name": "InvalidVotingPeriod",
      "type": "error"
    },
    {
      "inputs": [],
      "name": "NameCannotBeEmpty",
      "type": "error"
    },
    {
      "inputs": [],
      "name": "NoNFTOwnership",
      "type": "error"
    },
    {
      "inputs": [],
      "name": "NotEligibleToVote",
      "type": "error"
    },
    {
      "inputs": [],
      "name": "Unauthorized",
      "type": "error"
    },
    {
      "inputs": [],
      "name": "VotingIsActive",
      "type": "error"
    },
    {
      "inputs": [],
      "name": "VotingNotActive",
      "type": "error"
    },
    {
      "anonymous": false,
      "inputs": [
        {
          "indexed": true,
          "internalType": "uint256",
          "name": "electionId",
          "type": "uint256"
        },
        {
          "indexed": true,
          "internalType": "uint256",
          "name": "candidateId",
          "type": "uint256"
        },
        {
          "indexed": false,
          "internalType": "string",
          "name": "name",
          "type": "string"
        },
        {
          "indexed": false,
          "internalType": "string",
          "name": "image",
          "type": "string"
        },
        {
          "indexed": false,
          "internalType": "string",
          "name": "vision",
          "type": "string"
        },
        {
          "indexed": false,
          "internalType": "string",
          "name": "mission",
          "type": "string"
        }
      ],
      "name": "CandidateAdded",
      "type": "event"
    },
    {
      "anonymous": false,
      "inputs": [
        {
          "indexed": true,
          "internalType": "uint256",
          "name": "electionId",
          "type": "uint256"
        },
        {
          "indexed": true,
          "internalType": "uint256",
          "name": "candidateId",
          "type": "uint256"
        },
        {
          "indexed": false,
          "internalType": "string",
          "name": "name",
          "type": "string"
        },
        {
          "indexed": false,
          "internalType": "string",
          "name": "image",
          "type": "string"
        },
        {
          "indexed": false,
          "internalType": "string",
          "name": "vision",
          "type": "string"
        },
        {
          "indexed": false,
          "internalType": "string",
          "name": "mission",
          "type": "string"
        }
      ],
      "name": "CandidateUpdated",
      "type": "event"
    },
    {
      "anonymous": false,
      "inputs": [
        {
          "indexed": true,
          "internalType": "uint256",
          "name": "electionId",
          "type": "uint256"
        },
        {
          "indexed": false,
          "internalType": "string",
          "name": "name",
          "type": "string"
        },
        {
          "indexed": false,
          "internalType": "enum ElectionVote.ElectionType",
          "name": "electionType",
          "type": "uint8"
        },
        {
          "indexed": false,
          "internalType": "string",
          "name": "faculty",
          "type": "string"
        },
        {
          "indexed": false,
          "internalType": "string",
          "name": "program",
          "type": "string"
        }
      ],
      "name": "ElectionCreated",
      "type": "event"
    },
    {
      "anonymous": false,
      "inputs": [
        {
          "indexed": false,
          "internalType": "uint256",
          "name": "startTime",
          "type": "uint256"
        },
        {
          "indexed": false,
          "internalType": "uint256",
          "name": "endTime",
          "type": "uint256"
        }
      ],
      "name": "GlobalVotingStarted",
      "type": "event"
    },
    {
      "anonymous": false,
      "inputs": [
        {
          "indexed": true,
          "internalType": "uint256",
          "name": "electionId",
          "type": "uint256"
        },
        {
          "indexed": true,
          "internalType": "address",
          "name": "voter",
          "type": "address"
        },
        {
          "indexed": true,
          "internalType": "uint256",
          "name": "candidateId",
          "type": "uint256"
        }
      ],
      "name": "VoteSubmitted",
      "type": "event"
    },
    {
      "inputs": [
        {
          "internalType": "uint256",
          "name": "electionId",
          "type": "uint256"
        },
        {
          "internalType": "string",
          "name": "name",
          "type": "string"
        },
        {
          "internalType": "string",
          "name": "image",
          "type": "string"
        },
        {
          "internalType": "string",
          "name": "vision",
          "type": "string"
        },
        {
          "internalType": "string",
          "name": "mission",
          "type": "string"
        }
      ],
      "name": "addCandidate",
      "outputs": [],
      "stateMutability": "nonpayable",
      "type": "function"
    },
    {
      "inputs": [],
      "name": "admin",
      "outputs": [
        {
          "internalType": "address",
          "name": "",
          "type": "address"
        }
      ],
      "stateMutability": "view",
      "type": "function"
    },
    {
      "inputs": [
        {
          "internalType": "string",
          "name": "name",
          "type": "string"
        },
        {
          "internalType": "enum ElectionVote.ElectionType",
          "name": "electionType",
          "type": "uint8"
        },
        {
          "internalType": "string",
          "name": "faculty",
          "type": "string"
        },
        {
          "internalType": "string",
          "name": "program",
          "type": "string"
        }
      ],
      "name": "createElection",
      "outputs": [],
      "stateMutability": "nonpayable",
      "type": "function"
    },
    {
      "inputs": [],
      "name": "electionCount",
      "outputs": [
        {
          "internalType": "uint256",
          "name": "",
          "type": "uint256"
        }
      ],
      "stateMutability": "view",
      "type": "function"
    },
    {
      "inputs": [
        {
          "internalType": "uint256",
          "name": "",
          "type": "uint256"
        }
      ],
      "name": "elections",
      "outputs": [
        {
          "internalType": "uint256",
          "name": "id",
          "type": "uint256"
        },
        {
          "internalType": "string",
          "name": "name",
          "type": "string"
        },
        {
          "internalType": "enum ElectionVote.ElectionType",
          "name": "electionType",
          "type": "uint8"
        },
        {
          "internalType": "string",
          "name": "faculty",
          "type": "string"
        },
        {
          "internalType": "string",
          "name": "program",
          "type": "string"
        },
        {
          "internalType": "uint256",
          "name": "candidateCount",
          "type": "uint256"
        }
      ],
      "stateMutability": "view",
      "type": "function"
    },
    {
      "inputs": [
        {
          "internalType": "uint256",
          "name": "electionId",
          "type": "uint256"
        }
      ],
      "name": "getAllCandidates",
      "outputs": [
        {
          "components": [
            {
              "internalType": "uint256",
              "name": "id",
              "type": "uint256"
            },
            {
              "internalType": "string",
              "name": "name",
              "type": "string"
            },
            {
              "internalType": "string",
              "name": "image",
              "type": "string"
            },
            {
              "internalType": "string",
              "name": "vision",
              "type": "string"
            },
            {
              "internalType": "string",
              "name": "mission",
              "type": "string"
            },
            {
              "internalType": "uint256",
              "name": "voteCount",
              "type": "uint256"
            },
            {
              "internalType": "bool",
              "name": "exists",
              "type": "bool"
            }
          ],
          "internalType": "struct ElectionVote.Candidate[]",
          "name": "",
          "type": "tuple[]"
        }
      ],
      "stateMutability": "view",
      "type": "function"
    },
    {
      "inputs": [],
      "name": "getAllElections",
      "outputs": [
        {
          "components": [
            {
              "internalType": "uint256",
              "name": "id",
              "type": "uint256"
            },
            {
              "internalType": "string",
              "name": "name",
              "type": "string"
            },
            {
              "internalType": "enum ElectionVote.ElectionType",
              "name": "electionType",
              "type": "uint8"
            },
            {
              "internalType": "string",
              "name": "faculty",
              "type": "string"
            },
            {
              "internalType": "string",
              "name": "program",
              "type": "string"
            },
            {
              "internalType": "uint256",
              "name": "candidateCount",
              "type": "uint256"
            }
          ],
          "internalType": "struct ElectionVote.ElectionView[]",
          "name": "",
          "type": "tuple[]"
        }
      ],
      "stateMutability": "view",
      "type": "function"
    },
    {
      "inputs": [],
      "name": "getGlobalVotingPeriod",
      "outputs": [
        {
          "internalType": "bool",
          "name": "isActive",
          "type": "bool"
        },
        {
          "internalType": "uint256",
          "name": "startTime",
          "type": "uint256"
        },
        {
          "internalType": "uint256",
          "name": "endTime",
          "type": "uint256"
        }
      ],
      "stateMutability": "view",
      "type": "function"
    },
    {
      "inputs": [],
      "name": "getNFTHolders",
      "outputs": [
        {
          "components": [
            {
              "internalType": "address",
              "name": "holder",
              "type": "address"
            },
            {
              "internalType": "uint256[]",
              "name": "tokenIds",
              "type": "uint256[]"
            }
          ],
          "internalType": "struct ElectionVote.WhitelistInfo[]",
          "name": "",
          "type": "tuple[]"
        }
      ],
      "stateMutability": "view",
      "type": "function"
    },
    {
      "inputs": [],
      "name": "globalVotingPeriod",
      "outputs": [
        {
          "internalType": "bool",
          "name": "isActive",
          "type": "bool"
        },
        {
          "internalType": "uint256",
          "name": "startTime",
          "type": "uint256"
        },
        {
          "internalType": "uint256",
          "name": "endTime",
          "type": "uint256"
        }
      ],
      "stateMutability": "view",
      "type": "function"
    },
    {
      "inputs": [
        {
          "internalType": "address",
          "name": "",
          "type": "address"
        },
        {
          "internalType": "enum ElectionVote.ElectionType",
          "name": "",
          "type": "uint8"
        }
      ],
      "name": "hashVoted",
      "outputs": [
        {
          "internalType": "bool",
          "name": "",
          "type": "bool"
        }
      ],
      "stateMutability": "view",
      "type": "function"
    },
    {
      "inputs": [],
      "name": "isVotingActive",
      "outputs": [
        {
          "internalType": "bool",
          "name": "",
          "type": "bool"
        }
      ],
      "stateMutability": "view",
      "type": "function"
    },
    {
      "inputs": [],
      "name": "nftContractAddress",
      "outputs": [
        {
          "internalType": "address",
          "name": "",
          "type": "address"
        }
      ],
      "stateMutability": "view",
      "type": "function"
    },
    {
      "inputs": [
        {
          "internalType": "address",
          "name": "",
          "type": "address"
        }
      ],
      "name": "nonces",
      "outputs": [
        {
          "internalType": "uint256",
          "name": "",
          "type": "uint256"
        }
      ],
      "stateMutability": "view",
      "type": "function"
    },
    {
      "inputs": [
        {
          "internalType": "string",
          "name": "_version",
          "type": "string"
        }
      ],
      "name": "setVersion",
      "outputs": [],
      "stateMutability": "nonpayable",
      "type": "function"
    },
    {
      "inputs": [
        {
          "internalType": "uint256",
          "name": "duration",
          "type": "uint256"
        }
      ],
      "name": "startGlobalVoting",
      "outputs": [],
      "stateMutability": "nonpayable",
      "type": "function"
    },
    {
      "inputs": [
        {
          "internalType": "uint256",
          "name": "electionId",
          "type": "uint256"
        },
        {
          "internalType": "uint256",
          "name": "candidateId",
          "type": "uint256"
        },
        {
          "internalType": "string",
          "name": "name",
          "type": "string"
        },
        {
          "internalType": "string",
          "name": "image",
          "type": "string"
        },
        {
          "internalType": "string",
          "name": "vision",
          "type": "string"
        },
        {
          "internalType": "string",
          "name": "mission",
          "type": "string"
        }
      ],
      "name": "updateCandidate",
      "outputs": [],
      "stateMutability": "nonpayable",
      "type": "function"
    },
    {
      "inputs": [],
      "name": "version",
      "outputs": [
        {
          "internalType": "string",
          "name": "",
          "type": "string"
        }
      ],
      "stateMutability": "view",
      "type": "function"
    },
    {
      "inputs": [
        {
          "internalType": "uint256",
          "name": "electionId",
          "type": "uint256"
        },
        {
          "internalType": "uint256",
          "name": "candidateId",
          "type": "uint256"
        },
        {
          "internalType": "bytes",
          "name": "signature",
          "type": "bytes"
        }
      ],
      "name": "vote",
      "outputs": [],
      "stateMutability": "nonpayable",
      "type": "function"
    }
  ],
  "bytecode": "0x60c06040523480156200001157600080fd5b50604051620041e0380380620041e0833981810160405281019062000037919062000182565b600073ffffffffffffffffffffffffffffffffffffffff168173ffffffffffffffffffffffffffffffffffffffff1603620000a9576040517f08c379a0000000000000000000000000000000000000000000000000000000008152600401620000a09062000215565b60405180910390fd5b3373ffffffffffffffffffffffffffffffffffffffff1660808173ffffffffffffffffffffffffffffffffffffffff16815250508073ffffffffffffffffffffffffffffffffffffffff1660a08173ffffffffffffffffffffffffffffffffffffffff16815250505062000237565b600080fd5b600073ffffffffffffffffffffffffffffffffffffffff82169050919050565b60006200014a826200011d565b9050919050565b6200015c816200013d565b81146200016857600080fd5b50565b6000815190506200017c8162000151565b92915050565b6000602082840312156200019b576200019a62000118565b5b6000620001ab848285016200016b565b91505092915050565b600082825260208201905092915050565b7f496e76616c6964204e465420636f6e7472616374206164647265737300000000600082015250565b6000620001fd601c83620001b4565b91506200020a82620001c5565b602082019050919050565b600060208201905081810360008301526200023081620001ee565b9050919050565b60805160a051613f59620002876000396000818161167c015281816116a40152611fd30152600081816103a70152818161075e015281816108eb015281816111130152611c180152613f596000f3fe608060405234801561001057600080fd5b50600436106101215760003560e01c80637fd5f268116100ad578063b0dd5b2311610071578063b0dd5b23146102e9578063bf6a32b014610307578063cca02db714610327578063f851a44014610357578063f9ded6461461037557610121565b80637fd5f2681461025757806385e58eea14610275578063997d283014610291578063a867b846146102af578063aae282e1146102cb57610121565b80634c453147116100f45780634c4531471461019857806354fd4d50146101b85780635e6fef01146101d6578063788bc78c1461020b5780637ecebe001461022757610121565b8063119aeab714610126578063441455b7146101425780634628ba7f1461015e57806347cf6f761461017a575b600080fd5b610140600480360381019061013b9190612613565b6103a5565b005b61015c6004803603810190610157919061270f565b61075c565b005b6101786004803603810190610173919061273c565b6108e9565b005b610182610b58565b60405161018f9190612867565b60405180910390f35b6101a0610b93565b6040516101af93929190612891565b60405180910390f35b6101c0610bc1565b6040516101cd9190612958565b60405180910390f35b6101f060048036038101906101eb919061270f565b610c4f565b604051610202969594939291906129f1565b60405180910390f35b61022560048036038101906102209190612b97565b610e30565b005b610241600480360381019061023c9190612c3e565b610e43565b60405161024e9190612c6b565b60405180910390f35b61025f610e5b565b60405161026c9190612e47565b60405180910390f35b61028f600480360381019061028a9190612e8e565b611111565b005b610299611288565b6040516102a69190612c6b565b60405180910390f35b6102c960048036038101906102c49190612ff8565b61128e565b005b6102d361167a565b6040516102e09190613076565b60405180910390f35b6102f161169e565b6040516102fe919061324e565b60405180910390f35b61030f611bc2565b60405161031e93929190612891565b60405180910390f35b610341600480360381019061033c9190613270565b611be7565b60405161034e9190612867565b60405180910390f35b61035f611c16565b60405161036c9190613076565b60405180910390f35b61038f600480360381019061038a919061270f565b611c3a565b60405161039c9190613432565b60405180910390f35b7f000000000000000000000000000000000000000000000000000000000000000073ffffffffffffffffffffffffffffffffffffffff163373ffffffffffffffffffffffffffffffffffffffff161461042a576040517f82b4290000000000000000000000000000000000000000000000000000000000815260040160405180910390fd5b886006548110610466576040517fcd9f14e100000000000000000000000000000000000000000000000000000000815260040160405180910390fd5b61046e610b58565b156104a5576040517fe444027400000000000000000000000000000000000000000000000000000000815260040160405180910390fd5b600089899050036104e2576040517fcf48253200000000000000000000000000000000000000000000000000000000815260040160405180910390fd5b6000600560008c815260200190815260200160002090506000816005015490506040518060e001604052808281526020018c8c8080601f016020809104026020016040519081016040528093929190818152602001838380828437600081840152601f19601f8201169050808301925050505050505081526020018a8a8080601f016020809104026020016040519081016040528093929190818152602001838380828437600081840152601f19601f82011690508083019250505050505050815260200188888080601f016020809104026020016040519081016040528093929190818152602001838380828437600081840152601f19601f82011690508083019250505050505050815260200186868080601f016020809104026020016040519081016040528093929190818152602001838380828437600081840152601f19601f820116905080830192505050505050508152602001600081526020016001151581525082600601600083815260200190815260200160002060008201518160000155602082015181600101908161067d9190613660565b5060408201518160020190816106939190613660565b5060608201518160030190816106a99190613660565b5060808201518160040190816106bf9190613660565b5060a0820151816005015560c08201518160060160006101000a81548160ff02191690831515021790555090505081600501600081548092919061070290613761565b9190505550808c7fabeb79e5aeaa32f435fefbafcd8cb647fbdc671734b58ded15d3e05dec06456a8d8d8d8d8d8d8d8d6040516107469897969594939291906137d6565b60405180910390a3505050505050505050505050565b7f000000000000000000000000000000000000000000000000000000000000000073ffffffffffffffffffffffffffffffffffffffff163373ffffffffffffffffffffffffffffffffffffffff16146107e1576040517f82b4290000000000000000000000000000000000000000000000000000000000815260040160405180910390fd5b600260000160009054906101000a900460ff161561082b576040517fe444027400000000000000000000000000000000000000000000000000000000815260040160405180910390fd5b62015180811015610868576040517f05a612e300000000000000000000000000000000000000000000000000000000815260040160405180910390fd5b6001600260000160006101000a81548160ff02191690831515021790555042600260010181905550804261089c919061383f565b60028001819055507f228d55b3f6ff0eaceeda94af74f62ae2246e4cab3e409100ea7a8251743e9d5860026001015460028001546040516108de929190613873565b60405180910390a150565b7f000000000000000000000000000000000000000000000000000000000000000073ffffffffffffffffffffffffffffffffffffffff163373ffffffffffffffffffffffffffffffffffffffff161461096e576040517f82b4290000000000000000000000000000000000000000000000000000000000815260040160405180910390fd5b8960065481106109aa576040517fcd9f14e100000000000000000000000000000000000000000000000000000000815260040160405180910390fd5b6109b2610b58565b156109e9576040517fe444027400000000000000000000000000000000000000000000000000000000815260040160405180910390fd5b6000600560008d815260200190815260200160002090508060060160008c815260200190815260200160002060060160009054906101000a900460ff16610a5c576040517fe66ea08f00000000000000000000000000000000000000000000000000000000815260040160405180910390fd5b60008a8a905003610a99576040517fcf48253200000000000000000000000000000000000000000000000000000000815260040160405180910390fd5b60008160060160008d815260200190815260200160002090508a8a826001019182610ac59291906138a7565b508888826002019182610ad99291906138a7565b508686826003019182610aed9291906138a7565b508484826004019182610b019291906138a7565b508b8d7fb65d2216b65418afa2ed5586ac6ae0aa02215073fbd37484b761cd7775712bf58d8d8d8d8d8d8d8d604051610b419897969594939291906137d6565b60405180910390a350505050505050505050505050565b6000600260000160009054906101000a900460ff168015610b7e57506002600101544210155b8015610b8e575060028001544211155b905090565b6000806000600260000160009054906101000a900460ff166002600101546002800154925092509250909192565b60008054610bce90613483565b80601f0160208091040260200160405190810160405280929190818152602001828054610bfa90613483565b8015610c475780601f10610c1c57610100808354040283529160200191610c47565b820191906000526020600020905b815481529060010190602001808311610c2a57829003601f168201915b505050505081565b6005602052806000526040600020600091509050806000015490806001018054610c7890613483565b80601f0160208091040260200160405190810160405280929190818152602001828054610ca490613483565b8015610cf15780601f10610cc657610100808354040283529160200191610cf1565b820191906000526020600020905b815481529060010190602001808311610cd457829003601f168201915b5050505050908060020160009054906101000a900460ff1690806003018054610d1990613483565b80601f0160208091040260200160405190810160405280929190818152602001828054610d4590613483565b8015610d925780601f10610d6757610100808354040283529160200191610d92565b820191906000526020600020905b815481529060010190602001808311610d7557829003601f168201915b505050505090806004018054610da790613483565b80601f0160208091040260200160405190810160405280929190818152602001828054610dd390613483565b8015610e205780601f10610df557610100808354040283529160200191610e20565b820191906000526020600020905b815481529060010190602001808311610e0357829003601f168201915b5050505050908060050154905086565b8060009081610e3f9190613660565b5050565b60016020528060005260406000206000915090505481565b6060600060065467ffffffffffffffff811115610e7b57610e7a612a6c565b5b604051908082528060200260200182016040528015610eb457816020015b610ea16124ad565b815260200190600190039081610e995790505b50905060005b6006548110156111095760006005600083815260200190815260200160002090506040518060c0016040528082600001548152602001826001018054610eff90613483565b80601f0160208091040260200160405190810160405280929190818152602001828054610f2b90613483565b8015610f785780601f10610f4d57610100808354040283529160200191610f78565b820191906000526020600020905b815481529060010190602001808311610f5b57829003601f168201915b505050505081526020018260020160009054906101000a900460ff166004811115610fa657610fa561297a565b5b8152602001826003018054610fba90613483565b80601f0160208091040260200160405190810160405280929190818152602001828054610fe690613483565b80156110335780601f1061100857610100808354040283529160200191611033565b820191906000526020600020905b81548152906001019060200180831161101657829003601f168201915b5050505050815260200182600401805461104c90613483565b80601f016020809104026020016040519081016040528092919081815260200182805461107890613483565b80156110c55780601f1061109a576101008083540402835291602001916110c5565b820191906000526020600020905b8154815290600101906020018083116110a857829003601f168201915b5050505050815260200182600501548152508383815181106110ea576110e9613977565b5b602002602001018190525050808061110190613761565b915050610eba565b508091505090565b7f000000000000000000000000000000000000000000000000000000000000000073ffffffffffffffffffffffffffffffffffffffff163373ffffffffffffffffffffffffffffffffffffffff1614611196576040517f82b4290000000000000000000000000000000000000000000000000000000000815260040160405180910390fd5b6000600660008154809291906111ab90613761565b919050559050600060056000838152602001908152602001600020905081816000018190555088888260010191826111e49291906138a7565b50868160020160006101000a81548160ff0219169083600481111561120c5761120b61297a565b5b021790555085858260030191826112249291906138a7565b5083838260040191826112389291906138a7565b50817f43a79c5ead6111ae936a0ca3b54bf7da21ef907da6ba715025b6b192761d50728a8a8a8a8a8a8a60405161127597969594939291906139a6565b60405180910390a2505050505050505050565b60065481565b611296610b58565b6112cc576040517f9b8cc47500000000000000000000000000000000000000000000000000000000815260040160405180910390fd5b826006548110611308576040517fcd9f14e100000000000000000000000000000000000000000000000000000000815260040160405180910390fd5b600060056000868152602001908152602001600020905080600601600085815260200190815260200160002060060160009054906101000a900460ff1661137b576040517fe66ea08f00000000000000000000000000000000000000000000000000000000815260040160405180910390fd5b600760003373ffffffffffffffffffffffffffffffffffffffff1673ffffffffffffffffffffffffffffffffffffffff16815260200190815260200160002060008260020160009054906101000a900460ff1660048111156113e0576113df61297a565b5b60048111156113f2576113f161297a565b5b815260200190815260200160002060009054906101000a900460ff1615611445576040517f7c9a1cf900000000000000000000000000000000000000000000000000000000815260040160405180910390fd5b61144f3386611fce565b611485576040517f7fb16f1b00000000000000000000000000000000000000000000000000000000815260040160405180910390fd5b6000600160003373ffffffffffffffffffffffffffffffffffffffff1673ffffffffffffffffffffffffffffffffffffffff1681526020019081526020016000205490506114d6338787848861232c565b61150c576040517f8baa579f00000000000000000000000000000000000000000000000000000000815260040160405180910390fd5b600160003373ffffffffffffffffffffffffffffffffffffffff1673ffffffffffffffffffffffffffffffffffffffff168152602001908152602001600020600081548092919061155c90613761565b9190505550816006016000868152602001908152602001600020600501600081548092919061158a90613761565b91905055506001600760003373ffffffffffffffffffffffffffffffffffffffff1673ffffffffffffffffffffffffffffffffffffffff16815260200190815260200160002060008460020160009054906101000a900460ff1660048111156115f6576115f561297a565b5b60048111156116085761160761297a565b5b815260200190815260200160002060006101000a81548160ff021916908315150217905550843373ffffffffffffffffffffffffffffffffffffffff16877fa5876137634fc61be6a6224d5f4a2d0926145388c51a133c03cc00f7b66e0e3c60405160405180910390a4505050505050565b7f000000000000000000000000000000000000000000000000000000000000000081565b606060007f0000000000000000000000000000000000000000000000000000000000000000905060008173ffffffffffffffffffffffffffffffffffffffff1663a2309ff86040518163ffffffff1660e01b8152600401602060405180830381865afa158015611712573d6000803e3d6000fd5b505050506040513d601f19601f820116820180604052508101906117369190613a1b565b905060008167ffffffffffffffff81111561175457611753612a6c565b5b6040519080825280602002602001820160405280156117825781602001602082028036833780820191505090505b5090506000805b838110156119025760008573ffffffffffffffffffffffffffffffffffffffff16636352211e836040518263ffffffff1660e01b81526004016117cc9190612c6b565b602060405180830381865afa1580156117e9573d6000803e3d6000fd5b505050506040513d601f19601f8201168201806040525081019061180d9190613a5d565b905060006001905060005b84811015611889578273ffffffffffffffffffffffffffffffffffffffff1686828151811061184a57611849613977565b5b602002602001015173ffffffffffffffffffffffffffffffffffffffff16036118765760009150611889565b808061188190613761565b915050611818565b5080156118ed57818585815181106118a4576118a3613977565b5b602002602001019073ffffffffffffffffffffffffffffffffffffffff16908173ffffffffffffffffffffffffffffffffffffffff168152505083806118e990613761565b9450505b505080806118fa90613761565b915050611789565b5060008167ffffffffffffffff81111561191f5761191e612a6c565b5b60405190808252806020026020018201604052801561195857816020015b6119456124f5565b81526020019060019003908161193d5790505b50905060005b82811015611bb657600084828151811061197b5761197a613977565b5b6020026020010151905060008773ffffffffffffffffffffffffffffffffffffffff166370a08231836040518263ffffffff1660e01b81526004016119c09190613076565b602060405180830381865afa1580156119dd573d6000803e3d6000fd5b505050506040513d601f19601f82011682018060405250810190611a019190613a1b565b905060008167ffffffffffffffff811115611a1f57611a1e612a6c565b5b604051908082528060200260200182016040528015611a4d5781602001602082028036833780820191505090505b5090506000805b8981108015611a6257508382105b15611b55578473ffffffffffffffffffffffffffffffffffffffff168b73ffffffffffffffffffffffffffffffffffffffff16636352211e836040518263ffffffff1660e01b8152600401611ab79190612c6b565b602060405180830381865afa158015611ad4573d6000803e3d6000fd5b505050506040513d601f19601f82011682018060405250810190611af89190613a5d565b73ffffffffffffffffffffffffffffffffffffffff1603611b425780838381518110611b2757611b26613977565b5b6020026020010181815250508180611b3e90613761565b9250505b8080611b4d90613761565b915050611a54565b5060405180604001604052808573ffffffffffffffffffffffffffffffffffffffff16815260200183815250868681518110611b9457611b93613977565b5b6020026020010181905250505050508080611bae90613761565b91505061195e565b50809550505050505090565b60028060000160009054906101000a900460ff16908060010154908060020154905083565b60076020528160005260406000206020528060005260406000206000915091509054906101000a900460ff1681565b7f000000000000000000000000000000000000000000000000000000000000000081565b6060816006548110611c78576040517fcd9f14e100000000000000000000000000000000000000000000000000000000815260040160405180910390fd5b60006005600085815260200190815260200160002090506000816005015467ffffffffffffffff811115611caf57611cae612a6c565b5b604051908082528060200260200182016040528015611ce857816020015b611cd5612525565b815260200190600190039081611ccd5790505b50905060005b8260050154811015611fc2578260060160008281526020019081526020016000206040518060e001604052908160008201548152602001600182018054611d3490613483565b80601f0160208091040260200160405190810160405280929190818152602001828054611d6090613483565b8015611dad5780601f10611d8257610100808354040283529160200191611dad565b820191906000526020600020905b815481529060010190602001808311611d9057829003601f168201915b50505050508152602001600282018054611dc690613483565b80601f0160208091040260200160405190810160405280929190818152602001828054611df290613483565b8015611e3f5780601f10611e1457610100808354040283529160200191611e3f565b820191906000526020600020905b815481529060010190602001808311611e2257829003601f168201915b50505050508152602001600382018054611e5890613483565b80601f0160208091040260200160405190810160405280929190818152602001828054611e8490613483565b8015611ed15780601f10611ea657610100808354040283529160200191611ed1565b820191906000526020600020905b815481529060010190602001808311611eb457829003601f168201915b50505050508152602001600482018054611eea90613483565b80601f0160208091040260200160405190810160405280929190818152602001828054611f1690613483565b8015611f635780601f10611f3857610100808354040283529160200191611f63565b820191906000526020600020905b815481529060010190602001808311611f4657829003601f168201915b50505050508152602001600582015481526020016006820160009054906101000a900460ff161515151581525050828281518110611fa457611fa3613977565b5b60200260200101819052508080611fba90613761565b915050611cee565b50809350505050919050565b6000807f0000000000000000000000000000000000000000000000000000000000000000905060008173ffffffffffffffffffffffffffffffffffffffff166370a08231866040518263ffffffff1660e01b815260040161202f9190613076565b602060405180830381865afa15801561204c573d6000803e3d6000fd5b505050506040513d601f19601f820116820180604052508101906120709190613a1b565b0361207f576000915050612326565b6000808273ffffffffffffffffffffffffffffffffffffffff16639c917330876040518263ffffffff1660e01b81526004016120bb9190613076565b600060405180830381865afa1580156120d8573d6000803e3d6000fd5b505050506040513d6000823e3d601f19601f820116820180604052508101906121019190613afa565b5050915091506000600560008781526020019081526020016000209050600060048111156121325761213161297a565b5b8160020160009054906101000a900460ff1660048111156121565761215561297a565b5b148061219657506004808111156121705761216f61297a565b5b8160020160009054906101000a900460ff1660048111156121945761219361297a565b5b145b806121d65750600360048111156121b0576121af61297a565b5b8160020160009054906101000a900460ff1660048111156121d4576121d361297a565b5b145b156121e8576001945050505050612326565b600160048111156121fc576121fb61297a565b5b8160020160009054906101000a900460ff1660048111156122205761221f61297a565b5b148061226157506002600481111561223b5761223a61297a565b5b8160020160009054906101000a900460ff16600481111561225f5761225e61297a565b5b145b1561231d578060030160405160200161227a9190613c5f565b60405160208183030381529060405280519060200120836040516020016122a19190613ca7565b604051602081830303815290604052805190602001201480156123125750806004016040516020016122d39190613c5f565b60405160208183030381529060405280519060200120826040516020016122fa9190613ca7565b60405160208183030381529060405280519060200120145b945050505050612326565b60009450505050505b92915050565b600080868686866040516020016123469493929190613d27565b6040516020818303038152906040528051906020012090506000816040516020016123719190613dec565b604051602081830303815290604052805190602001209050600061239582866123d4565b90508873ffffffffffffffffffffffffffffffffffffffff168173ffffffffffffffffffffffffffffffffffffffff1614935050505095945050505050565b6000604182511461241a576040517f08c379a000000000000000000000000000000000000000000000000000000000815260040161241190613e5e565b60405180910390fd5b60008060006020850151925060408501519150606085015160001a9050601b8160ff16101561245357601b816124509190613e8b565b90505b600186828585604051600081526020016040526040516124769493929190613ede565b6020604051602081039080840390855afa158015612498573d6000803e3d6000fd5b50505060206040510351935050505092915050565b6040518060c001604052806000815260200160608152602001600060048111156124da576124d961297a565b5b81526020016060815260200160608152602001600081525090565b6040518060400160405280600073ffffffffffffffffffffffffffffffffffffffff168152602001606081525090565b6040518060e001604052806000815260200160608152602001606081526020016060815260200160608152602001600081526020016000151581525090565b6000604051905090565b600080fd5b600080fd5b6000819050919050565b61258b81612578565b811461259657600080fd5b50565b6000813590506125a881612582565b92915050565b600080fd5b600080fd5b600080fd5b60008083601f8401126125d3576125d26125ae565b5b8235905067ffffffffffffffff8111156125f0576125ef6125b3565b5b60208301915083600182028301111561260c5761260b6125b8565b5b9250929050565b600080600080600080600080600060a08a8c0312156126355761263461256e565b5b60006126438c828d01612599565b99505060208a013567ffffffffffffffff81111561266457612663612573565b5b6126708c828d016125bd565b985098505060408a013567ffffffffffffffff81111561269357612692612573565b5b61269f8c828d016125bd565b965096505060608a013567ffffffffffffffff8111156126c2576126c1612573565b5b6126ce8c828d016125bd565b945094505060808a013567ffffffffffffffff8111156126f1576126f0612573565b5b6126fd8c828d016125bd565b92509250509295985092959850929598565b6000602082840312156127255761272461256e565b5b600061273384828501612599565b91505092915050565b60008060008060008060008060008060c08b8d03121561275f5761275e61256e565b5b600061276d8d828e01612599565b9a5050602061277e8d828e01612599565b99505060408b013567ffffffffffffffff81111561279f5761279e612573565b5b6127ab8d828e016125bd565b985098505060608b013567ffffffffffffffff8111156127ce576127cd612573565b5b6127da8d828e016125bd565b965096505060808b013567ffffffffffffffff8111156127fd576127fc612573565b5b6128098d828e016125bd565b945094505060a08b013567ffffffffffffffff81111561282c5761282b612573565b5b6128388d828e016125bd565b92509250509295989b9194979a5092959850565b60008115159050919050565b6128618161284c565b82525050565b600060208201905061287c6000830184612858565b92915050565b61288b81612578565b82525050565b60006060820190506128a66000830186612858565b6128b36020830185612882565b6128c06040830184612882565b949350505050565b600081519050919050565b600082825260208201905092915050565b60005b838110156129025780820151818401526020810190506128e7565b60008484015250505050565b6000601f19601f8301169050919050565b600061292a826128c8565b61293481856128d3565b93506129448185602086016128e4565b61294d8161290e565b840191505092915050565b60006020820190508181036000830152612972818461291f565b905092915050565b7f4e487b7100000000000000000000000000000000000000000000000000000000600052602160045260246000fd5b600581106129ba576129b961297a565b5b50565b60008190506129cb826129a9565b919050565b60006129db826129bd565b9050919050565b6129eb816129d0565b82525050565b600060c082019050612a066000830189612882565b8181036020830152612a18818861291f565b9050612a2760408301876129e2565b8181036060830152612a39818661291f565b90508181036080830152612a4d818561291f565b9050612a5c60a0830184612882565b979650505050505050565b600080fd5b7f4e487b7100000000000000000000000000000000000000000000000000000000600052604160045260246000fd5b612aa48261290e565b810181811067ffffffffffffffff82111715612ac357612ac2612a6c565b5b80604052505050565b6000612ad6612564565b9050612ae28282612a9b565b919050565b600067ffffffffffffffff821115612b0257612b01612a6c565b5b612b0b8261290e565b9050602081019050919050565b82818337600083830152505050565b6000612b3a612b3584612ae7565b612acc565b905082815260208101848484011115612b5657612b55612a67565b5b612b61848285612b18565b509392505050565b600082601f830112612b7e57612b7d6125ae565b5b8135612b8e848260208601612b27565b91505092915050565b600060208284031215612bad57612bac61256e565b5b600082013567ffffffffffffffff811115612bcb57612bca612573565b5b612bd784828501612b69565b91505092915050565b600073ffffffffffffffffffffffffffffffffffffffff82169050919050565b6000612c0b82612be0565b9050919050565b612c1b81612c00565b8114612c2657600080fd5b50565b600081359050612c3881612c12565b92915050565b600060208284031215612c5457612c5361256e565b5b6000612c6284828501612c29565b91505092915050565b6000602082019050612c806000830184612882565b92915050565b600081519050919050565b600082825260208201905092915050565b6000819050602082019050919050565b612cbb81612578565b82525050565b600082825260208201905092915050565b6000612cdd826128c8565b612ce78185612cc1565b9350612cf78185602086016128e4565b612d008161290e565b840191505092915050565b612d14816129d0565b82525050565b600060c083016000830151612d326000860182612cb2565b5060208301518482036020860152612d4a8282612cd2565b9150506040830151612d5f6040860182612d0b565b5060608301518482036060860152612d778282612cd2565b91505060808301518482036080860152612d918282612cd2565b91505060a0830151612da660a0860182612cb2565b508091505092915050565b6000612dbd8383612d1a565b905092915050565b6000602082019050919050565b6000612ddd82612c86565b612de78185612c91565b935083602082028501612df985612ca2565b8060005b85811015612e355784840389528151612e168582612db1565b9450612e2183612dc5565b925060208a01995050600181019050612dfd565b50829750879550505050505092915050565b60006020820190508181036000830152612e618184612dd2565b905092915050565b60058110612e7657600080fd5b50565b600081359050612e8881612e69565b92915050565b60008060008060008060006080888a031215612ead57612eac61256e565b5b600088013567ffffffffffffffff811115612ecb57612eca612573565b5b612ed78a828b016125bd565b97509750506020612eea8a828b01612e79565b955050604088013567ffffffffffffffff811115612f0b57612f0a612573565b5b612f178a828b016125bd565b9450945050606088013567ffffffffffffffff811115612f3a57612f39612573565b5b612f468a828b016125bd565b925092505092959891949750929550565b600067ffffffffffffffff821115612f7257612f71612a6c565b5b612f7b8261290e565b9050602081019050919050565b6000612f9b612f9684612f57565b612acc565b905082815260208101848484011115612fb757612fb6612a67565b5b612fc2848285612b18565b509392505050565b600082601f830112612fdf57612fde6125ae565b5b8135612fef848260208601612f88565b91505092915050565b6000806000606084860312156130115761301061256e565b5b600061301f86828701612599565b935050602061303086828701612599565b925050604084013567ffffffffffffffff81111561305157613050612573565b5b61305d86828701612fca565b9150509250925092565b61307081612c00565b82525050565b600060208201905061308b6000830184613067565b92915050565b600081519050919050565b600082825260208201905092915050565b6000819050602082019050919050565b6130c681612c00565b82525050565b600081519050919050565b600082825260208201905092915050565b6000819050602082019050919050565b60006131048383612cb2565b60208301905092915050565b6000602082019050919050565b6000613128826130cc565b61313281856130d7565b935061313d836130e8565b8060005b8381101561316e57815161315588826130f8565b975061316083613110565b925050600181019050613141565b5085935050505092915050565b600060408301600083015161319360008601826130bd565b50602083015184820360208601526131ab828261311d565b9150508091505092915050565b60006131c4838361317b565b905092915050565b6000602082019050919050565b60006131e482613091565b6131ee818561309c565b935083602082028501613200856130ad565b8060005b8581101561323c578484038952815161321d85826131b8565b9450613228836131cc565b925060208a01995050600181019050613204565b50829750879550505050505092915050565b6000602082019050818103600083015261326881846131d9565b905092915050565b600080604083850312156132875761328661256e565b5b600061329585828601612c29565b92505060206132a685828601612e79565b9150509250929050565b600081519050919050565b600082825260208201905092915050565b6000819050602082019050919050565b6132e58161284c565b82525050565b600060e0830160008301516133036000860182612cb2565b506020830151848203602086015261331b8282612cd2565b915050604083015184820360408601526133358282612cd2565b9150506060830151848203606086015261334f8282612cd2565b915050608083015184820360808601526133698282612cd2565b91505060a083015161337e60a0860182612cb2565b5060c083015161339160c08601826132dc565b508091505092915050565b60006133a883836132eb565b905092915050565b6000602082019050919050565b60006133c8826132b0565b6133d281856132bb565b9350836020820285016133e4856132cc565b8060005b858110156134205784840389528151613401858261339c565b945061340c836133b0565b925060208a019950506001810190506133e8565b50829750879550505050505092915050565b6000602082019050818103600083015261344c81846133bd565b905092915050565b7f4e487b7100000000000000000000000000000000000000000000000000000000600052602260045260246000fd5b6000600282049050600182168061349b57607f821691505b6020821081036134ae576134ad613454565b5b50919050565b60008190508160005260206000209050919050565b60006020601f8301049050919050565b600082821b905092915050565b6000600883026135167fffffffffffffffffffffffffffffffffffffffffffffffffffffffffffffffff826134d9565b61352086836134d9565b95508019841693508086168417925050509392505050565b6000819050919050565b600061355d61355861355384612578565b613538565b612578565b9050919050565b6000819050919050565b61357783613542565b61358b61358382613564565b8484546134e6565b825550505050565b600090565b6135a0613593565b6135ab81848461356e565b505050565b5b818110156135cf576135c4600082613598565b6001810190506135b1565b5050565b601f821115613614576135e5816134b4565b6135ee846134c9565b810160208510156135fd578190505b613611613609856134c9565b8301826135b0565b50505b505050565b600082821c905092915050565b600061363760001984600802613619565b1980831691505092915050565b60006136508383613626565b9150826002028217905092915050565b613669826128c8565b67ffffffffffffffff81111561368257613681612a6c565b5b61368c8254613483565b6136978282856135d3565b600060209050601f8311600181146136ca57600084156136b8578287015190505b6136c28582613644565b86555061372a565b601f1984166136d8866134b4565b60005b82811015613700578489015182556001820191506020850194506020810190506136db565b8683101561371d5784890151613719601f891682613626565b8355505b6001600288020188555050505b505050505050565b7f4e487b7100000000000000000000000000000000000000000000000000000000600052601160045260246000fd5b600061376c82612578565b91507fffffffffffffffffffffffffffffffffffffffffffffffffffffffffffffffff820361379e5761379d613732565b5b600182019050919050565b60006137b583856128d3565b93506137c2838584612b18565b6137cb8361290e565b840190509392505050565b600060808201905081810360008301526137f1818a8c6137a9565b9050818103602083015261380681888a6137a9565b9050818103604083015261381b8186886137a9565b905081810360608301526138308184866137a9565b90509998505050505050505050565b600061384a82612578565b915061385583612578565b925082820190508082111561386d5761386c613732565b5b92915050565b60006040820190506138886000830185612882565b6138956020830184612882565b9392505050565b600082905092915050565b6138b1838361389c565b67ffffffffffffffff8111156138ca576138c9612a6c565b5b6138d48254613483565b6138df8282856135d3565b6000601f83116001811461390e57600084156138fc578287013590505b6139068582613644565b86555061396e565b601f19841661391c866134b4565b60005b828110156139445784890135825560018201915060208501945060208101905061391f565b86831015613961578489013561395d601f891682613626565b8355505b6001600288020188555050505b50505050505050565b7f4e487b7100000000000000000000000000000000000000000000000000000000600052603260045260246000fd5b600060808201905081810360008301526139c181898b6137a9565b90506139d060208301886129e2565b81810360408301526139e38186886137a9565b905081810360608301526139f88184866137a9565b905098975050505050505050565b600081519050613a1581612582565b92915050565b600060208284031215613a3157613a3061256e565b5b6000613a3f84828501613a06565b91505092915050565b600081519050613a5781612c12565b92915050565b600060208284031215613a7357613a7261256e565b5b6000613a8184828501613a48565b91505092915050565b6000613a9d613a9884612ae7565b612acc565b905082815260208101848484011115613ab957613ab8612a67565b5b613ac48482856128e4565b509392505050565b600082601f830112613ae157613ae06125ae565b5b8151613af1848260208601613a8a565b91505092915050565b60008060008060808587031215613b1457613b1361256e565b5b600085015167ffffffffffffffff811115613b3257613b31612573565b5b613b3e87828801613acc565b945050602085015167ffffffffffffffff811115613b5f57613b5e612573565b5b613b6b87828801613acc565b935050604085015167ffffffffffffffff811115613b8c57613b8b612573565b5b613b9887828801613acc565b925050606085015167ffffffffffffffff811115613bb957613bb8612573565b5b613bc587828801613acc565b91505092959194509250565b600081905092915050565b60008154613be981613483565b613bf38186613bd1565b94506001821660008114613c0e5760018114613c2357613c56565b60ff1983168652811515820286019350613c56565b613c2c856134b4565b60005b83811015613c4e57815481890152600182019150602081019050613c2f565b838801955050505b50505092915050565b6000613c6b8284613bdc565b915081905092915050565b6000613c81826128c8565b613c8b8185613bd1565b9350613c9b8185602086016128e4565b80840191505092915050565b6000613cb38284613c76565b915081905092915050565b60008160601b9050919050565b6000613cd682613cbe565b9050919050565b6000613ce882613ccb565b9050919050565b613d00613cfb82612c00565b613cdd565b82525050565b6000819050919050565b613d21613d1c82612578565b613d06565b82525050565b6000613d338287613cef565b601482019150613d438286613d10565b602082019150613d538285613d10565b602082019150613d638284613d10565b60208201915081905095945050505050565b7f19457468657265756d205369676e6564204d6573736167653a0a333200000000600082015250565b6000613dab601c83613bd1565b9150613db682613d75565b601c82019050919050565b6000819050919050565b6000819050919050565b613de6613de182613dc1565b613dcb565b82525050565b6000613df782613d9e565b9150613e038284613dd5565b60208201915081905092915050565b7f496e76616c6964207369676e6174757265206c656e6774680000000000000000600082015250565b6000613e486018836128d3565b9150613e5382613e12565b602082019050919050565b60006020820190508181036000830152613e7781613e3b565b9050919050565b600060ff82169050919050565b6000613e9682613e7e565b9150613ea183613e7e565b9250828201905060ff811115613eba57613eb9613732565b5b92915050565b613ec981613dc1565b82525050565b613ed881613e7e565b82525050565b6000608082019050613ef36000830187613ec0565b613f006020830186613ecf565b613f0d6040830185613ec0565b613f1a6060830184613ec0565b9594505050505056fea26469706673582212203045b7262a05bdd321f76135d0094a790dba8ab0efc41098ee17f35dd150c8b364736f6c63430008140033",
  "linkReferences": {},
  "deployedLinkReferences": {}
}